{
  "contractName": "Lottery",
  "abi": [
    {
      "inputs": [
        {
          "internalType": "uint64",
          "name": "subscriptionId",
          "type": "uint64"
        }
      ],
      "stateMutability": "nonpayable",
      "type": "constructor"
    },
    {
      "inputs": [
        {
          "internalType": "address",
          "name": "have",
          "type": "address"
        },
        {
          "internalType": "address",
          "name": "want",
          "type": "address"
        }
      ],
      "name": "OnlyCoordinatorCanFulfill",
      "type": "error"
    },
    {
      "inputs": [],
      "name": "lastRequestId",
      "outputs": [
        {
          "internalType": "uint256",
          "name": "",
          "type": "uint256"
        }
      ],
      "stateMutability": "view",
      "type": "function",
      "constant": true
    },
    {
      "inputs": [],
      "name": "owner",
      "outputs": [
        {
          "internalType": "address",
          "name": "",
          "type": "address"
        }
      ],
      "stateMutability": "view",
      "type": "function",
      "constant": true
    },
    {
      "inputs": [
        {
          "internalType": "uint256",
          "name": "",
          "type": "uint256"
        }
      ],
      "name": "players",
      "outputs": [
        {
          "internalType": "address payable",
          "name": "",
          "type": "address"
        }
      ],
      "stateMutability": "view",
      "type": "function",
      "constant": true
    },
    {
      "inputs": [
        {
          "internalType": "uint256",
          "name": "requestId",
          "type": "uint256"
        },
        {
          "internalType": "uint256[]",
          "name": "randomWords",
          "type": "uint256[]"
        }
      ],
      "name": "rawFulfillRandomWords",
      "outputs": [],
      "stateMutability": "nonpayable",
      "type": "function"
    },
    {
      "inputs": [
        {
          "internalType": "uint256",
          "name": "",
          "type": "uint256"
        }
      ],
      "name": "requestIds",
      "outputs": [
        {
          "internalType": "uint256",
          "name": "",
          "type": "uint256"
        }
      ],
      "stateMutability": "view",
      "type": "function",
      "constant": true
    },
    {
      "inputs": [
        {
          "internalType": "uint256",
          "name": "",
          "type": "uint256"
        }
      ],
      "name": "s_requests",
      "outputs": [
        {
          "internalType": "bool",
          "name": "fulfilled",
          "type": "bool"
        },
        {
          "internalType": "bool",
          "name": "exists",
          "type": "bool"
        }
      ],
      "stateMutability": "view",
      "type": "function",
      "constant": true
    },
    {
      "inputs": [],
      "name": "requestRandomWords",
      "outputs": [
        {
          "internalType": "uint256",
          "name": "requestId",
          "type": "uint256"
        }
      ],
      "stateMutability": "nonpayable",
      "type": "function"
    },
    {
      "inputs": [
        {
          "internalType": "uint256",
          "name": "_requestId",
          "type": "uint256"
        }
      ],
      "name": "getRequestStatus",
      "outputs": [
        {
          "internalType": "bool",
          "name": "fulfilled",
          "type": "bool"
        },
        {
          "internalType": "uint256[]",
          "name": "randomWords",
          "type": "uint256[]"
        }
      ],
      "stateMutability": "view",
      "type": "function",
      "constant": true
    },
    {
      "inputs": [],
      "name": "getPotbalance",
      "outputs": [
        {
          "internalType": "uint256",
          "name": "",
          "type": "uint256"
        }
      ],
      "stateMutability": "view",
      "type": "function",
      "constant": true
    },
    {
      "inputs": [],
      "name": "getPlayers",
      "outputs": [
        {
          "internalType": "address payable[]",
          "name": "",
          "type": "address[]"
        }
      ],
      "stateMutability": "view",
      "type": "function",
      "constant": true
    },
    {
      "inputs": [],
      "name": "Play",
      "outputs": [],
      "stateMutability": "payable",
      "type": "function",
      "payable": true
    },
    {
      "inputs": [],
      "name": "Paywinner",
      "outputs": [],
      "stateMutability": "nonpayable",
      "type": "function"
    },
    {
      "inputs": [
        {
          "internalType": "uint256",
          "name": "_lotteryid",
          "type": "uint256"
        }
      ],
      "name": "getWinner",
      "outputs": [
        {
          "internalType": "address payable",
          "name": "",
          "type": "address"
        }
      ],
      "stateMutability": "view",
      "type": "function",
      "constant": true
    }
  ],
  "bytecode": "0x60a06040527f79d3d8832d904592c0bf9818b621522c988bb8b0c05cdc3b15aea1b6e8db0c15600855600980546001600160501b03191666020003000186a017905534801561004d57600080fd5b50604051610c85380380610c8583398101604081905261006c916100e9565b7f2ca8e0c643bde4c2e08ab1fa0da3401adad7734d000000000000000000000000608052600580546001600160401b03909216600160a01b026001600160e01b031990921691909117732ca8e0c643bde4c2e08ab1fa0da3401adad7734d179055600080546001600160a01b031916331790556001600255610119565b6000602082840312156100fb57600080fd5b81516001600160401b038116811461011257600080fd5b9392505050565b60805160601c610b4761013e6000396000818161030301526103450152610b476000f3fe6080604052600436106100c25760003560e01c80638b5b9ccc1161007f578063d8a4676f11610059578063d8a4676f14610228578063e0c8628914610256578063f71d96cb1461026b578063fc2a88c31461028b57600080fd5b80638b5b9ccc146101965780638da5cb5b146101b8578063a168fa89146101d857600080fd5b80630e2dce69146100c75780631fe543e3146100d15780632d9b7457146100f15780634129b2c91461011357806378b0b2e6146101615780638796ba8c14610176575b600080fd5b6100cf6102a1565b005b3480156100dd57600080fd5b506100cf6100ec36600461092c565b6102f8565b3480156100fd57600080fd5b50475b6040519081526020015b60405180910390f35b34801561011f57600080fd5b5061014961012e3660046108fa565b6000908152600360205260409020546001600160a01b031690565b6040516001600160a01b03909116815260200161010a565b34801561016d57600080fd5b506100cf610385565b34801561018257600080fd5b506101006101913660046108fa565b610480565b3480156101a257600080fd5b506101ab6104a1565b60405161010a91906109fd565b3480156101c457600080fd5b50600054610149906001600160a01b031681565b3480156101e457600080fd5b506102116101f33660046108fa565b60046020526000908152604090205460ff8082169161010090041682565b60408051921515835290151560208301520161010a565b34801561023457600080fd5b506102486102433660046108fa565b610503565b60405161010a929190610a4a565b34801561026257600080fd5b506101006105f7565b34801561027757600080fd5b506101496102863660046108fa565b61078e565b34801561029757600080fd5b5061010060075481565b662386f26fc100003410156102b557600080fd5b6001805480820182556000919091527fb10e2d527612073b26eecdfd717e6a320cf44b4afac2b0732d9fcbe2b7fa0cf60180546001600160a01b03191633179055565b336001600160a01b037f000000000000000000000000000000000000000000000000000000000000000016146103775760405163073e64fd60e21b81523360048201526001600160a01b037f00000000000000000000000000000000000000000000000000000000000000001660248201526044015b60405180910390fd5b61038182826107b8565b5050565b6000546001600160a01b0316331461039c57600080fd5b6001546007546000916103ae91610ac3565b9050600181815481106103c3576103c3610ae5565b60009182526020822001546040516001600160a01b03909116914780156108fc02929091818181858888f19350505050158015610404573d6000803e3d6000fd5b506001818154811061041857610418610ae5565b600091825260208083209091015460028054845260039092526040832080546001600160a01b0319166001600160a01b0390921691909117905580549161045e83610a9a565b9091555050604080516000815260208101918290525161038191600191610845565b6006818154811061049057600080fd5b600091825260209091200154905081565b606060018054806020026020016040519081016040528092919081815260200182805480156104f957602002820191906000526020600020905b81546001600160a01b031681526001909101906020018083116104db575b5050505050905090565b600081815260046020526040812054606090610100900460ff1661055d5760405162461bcd60e51b81526020600482015260116024820152701c995c5d595cdd081b9bdd08199bdd5b99607a1b604482015260640161036e565b60008381526004602090815260408083208151606081018352815460ff80821615158352610100909104161515818501526001820180548451818702810187018652818152929593948601938301828280156105d857602002820191906000526020600020905b8154815260200190600101908083116105c4575b5050505050815250509050806000015181604001519250925050915091565b600080546001600160a01b0316331461060f57600080fd5b6005546008546009546040516305d3b1d360e41b81526004810192909252600160a01b830467ffffffffffffffff166024830152640100000000810461ffff16604483015263ffffffff808216606484015266010000000000009091041660848201526001600160a01b0390911690635d3b1d309060a401602060405180830381600087803b1580156106a157600080fd5b505af11580156106b5573d6000803e3d6000fd5b505050506040513d601f19601f820116820180604052508101906106d99190610913565b6040805160608101825260008082526001602080840182815285518481528083018752858701908152878552600483529590932084518154945161ffff1990951690151561ff0019161761010094151594909402939093178355935180519596509294919361074e93918501929101906108aa565b5050600680546001810182556000919091527ff652222313e28459528d920b65115c16c04f3efc82aaedc97be59f3f377c0d3f0182905550600781905590565b6001818154811061079e57600080fd5b6000918252602090912001546001600160a01b0316905081565b600082815260046020526040902054610100900460ff1661080f5760405162461bcd60e51b81526020600482015260116024820152701c995c5d595cdd081b9bdd08199bdd5b99607a1b604482015260640161036e565b6000828152600460209081526040909120805460ff19166001908117825583516108409392909101918401906108aa565b505050565b82805482825590600052602060002090810192821561089a579160200282015b8281111561089a57825182546001600160a01b0319166001600160a01b03909116178255602090920191600190910190610865565b506108a69291506108e5565b5090565b82805482825590600052602060002090810192821561089a579160200282015b8281111561089a5782518255916020019190600101906108ca565b5b808211156108a657600081556001016108e6565b60006020828403121561090c57600080fd5b5035919050565b60006020828403121561092557600080fd5b5051919050565b6000806040838503121561093f57600080fd5b8235915060208084013567ffffffffffffffff8082111561095f57600080fd5b818601915086601f83011261097357600080fd5b81358181111561098557610985610afb565b8060051b604051601f19603f830116810181811085821117156109aa576109aa610afb565b604052828152858101935084860182860187018b10156109c957600080fd5b600095505b838610156109ec5780358552600195909501949386019386016109ce565b508096505050505050509250929050565b6020808252825182820181905260009190848201906040850190845b81811015610a3e5783516001600160a01b031683529284019291840191600101610a19565b50909695505050505050565b60006040820184151583526020604081850152818551808452606086019150828701935060005b81811015610a8d57845183529383019391830191600101610a71565b5090979650505050505050565b6000600019821415610abc57634e487b7160e01b600052601160045260246000fd5b5060010190565b600082610ae057634e487b7160e01b600052601260045260246000fd5b500690565b634e487b7160e01b600052603260045260246000fd5b634e487b7160e01b600052604160045260246000fdfea264697066735822122055ffb6c99ed76894ed40a688749fd85d19c9b06f573e6b463ea6596b1916b81464736f6c63430008070033",
  "immutableReferences": {
    "192": [
      {
        "length": 32,
        "start": 771
      },
      {
        "length": 32,
        "start": 837
      }
    ]
  },
  "source": "//SPDX-License-Identifier: MIT\r\npragma solidity 0.8.7;\r\n\r\nimport \"@chainlink/contracts/src/v0.8/interfaces/VRFCoordinatorV2Interface.sol\";\r\nimport \"@chainlink/contracts/src/v0.8/VRFConsumerBaseV2.sol\";\r\nimport \"@chainlink/contracts/src/v0.8/ConfirmedOwner.sol\";\r\n\r\ncontract Lottery is VRFConsumerBaseV2 {\r\n    address public owner;\r\n    address payable[] public players;\r\n    uint256 lotteryid;\r\n    mapping(uint256 => address payable) lotteryhistory;\r\n\r\n    struct RequestStatus {\r\n        bool fulfilled; // whether the request has been successfully fulfilled\r\n        bool exists; // whether a requestId exists\r\n        uint256[] randomWords;\r\n    }\r\n    mapping(uint256 => RequestStatus) public s_requests; /* requestId --> requestStatus */\r\n    VRFCoordinatorV2Interface COORDINATOR;\r\n\r\n    // Your subscription ID.\r\n    uint64 s_subscriptionId;\r\n\r\n    // past requests Id.\r\n    uint256[] public requestIds;\r\n    uint256 public lastRequestId;\r\n\r\n    bytes32 keyHash =\r\n        0x79d3d8832d904592c0bf9818b621522c988bb8b0c05cdc3b15aea1b6e8db0c15;\r\n\r\n    uint32 callbackGasLimit = 100000;\r\n\r\n    uint16 requestConfirmations = 3;\r\n\r\n    uint32 numWords = 2;\r\n\r\n    constructor(uint64 subscriptionId)\r\n        VRFConsumerBaseV2(0x2Ca8E0C643bDe4C2E08ab1fA0da3401AdAD7734D)\r\n    {\r\n        COORDINATOR = VRFCoordinatorV2Interface(\r\n            0x2Ca8E0C643bDe4C2E08ab1fA0da3401AdAD7734D\r\n        );\r\n        s_subscriptionId = subscriptionId;\r\n        owner = msg.sender;\r\n        lotteryid = 1;\r\n    }\r\n\r\n    // Assumes the subscription is funded sufficiently.\r\n    function requestRandomWords()\r\n        external\r\n        onlyOwner\r\n        returns (uint256 requestId)\r\n    {\r\n        // Will revert if subscription is not set and funded.\r\n        requestId = COORDINATOR.requestRandomWords(\r\n            keyHash,\r\n            s_subscriptionId,\r\n            requestConfirmations,\r\n            callbackGasLimit,\r\n            numWords\r\n        );\r\n        s_requests[requestId] = RequestStatus({\r\n            randomWords: new uint256[](0),\r\n            exists: true,\r\n            fulfilled: false\r\n        });\r\n        requestIds.push(requestId);\r\n        lastRequestId = requestId;\r\n        return requestId;\r\n    }\r\n\r\n    function fulfillRandomWords(\r\n        uint256 _requestId,\r\n        uint256[] memory _randomWords\r\n    ) internal override {\r\n        require(s_requests[_requestId].exists, \"request not found\");\r\n        s_requests[_requestId].fulfilled = true;\r\n        s_requests[_requestId].randomWords = _randomWords;\r\n    }\r\n\r\n    function getRequestStatus(uint256 _requestId)\r\n        external\r\n        view\r\n        returns (bool fulfilled, uint256[] memory randomWords)\r\n    {\r\n        require(s_requests[_requestId].exists, \"request not found\");\r\n        RequestStatus memory request = s_requests[_requestId];\r\n        return (request.fulfilled, request.randomWords);\r\n    }\r\n\r\n    function getPotbalance() public view returns (uint256) {\r\n        return address(this).balance;\r\n    }\r\n\r\n    function getPlayers() public view returns (address payable[] memory) {\r\n        return players;\r\n    }\r\n\r\n    function Play() public payable {\r\n        require(msg.value >= 10000000000000000);\r\n        //adding player address to an array\r\n        players.push(payable(msg.sender));\r\n    }\r\n\r\n    modifier onlyOwner() {\r\n        require(msg.sender == owner);\r\n        _;\r\n    }\r\n\r\n    /* function pickWinner() public onlyOwner {\r\n        requestRandomWords();\r\n    }*/\r\n\r\n    function Paywinner() public onlyOwner {\r\n        uint256 index = lastRequestId % players.length;\r\n        players[index].transfer(address(this).balance);\r\n\r\n        lotteryhistory[lotteryid] = players[index];\r\n        lotteryid++;\r\n\r\n        //reset contract state\r\n        players = new address payable[](0);\r\n    }\r\n\r\n    function getWinner(uint256 _lotteryid)\r\n        public\r\n        view\r\n        returns (address payable)\r\n    {\r\n        return lotteryhistory[_lotteryid];\r\n    }\r\n}\r\n",
  "sourcePath": "C:\\Users\\OLANREWAJU\\Desktop\\LottoDapp\\loto_truffle\\contracts\\Lottery.sol",
  "compiler": {
    "name": "solc",
    "version": "0.8.7+commit.e28d00a7.Emscripten.clang"
  },
  "schemaVersion": "3.4.10",
  "updatedAt": "2022-11-16T22:30:36.820Z",
  "networkType": "ethereum",
  "devdoc": {
    "kind": "dev",
    "methods": {},
    "version": 1
  },
  "userdoc": {
    "kind": "user",
    "methods": {},
    "version": 1
  }
}