{
  "contractName": "Lottery",
  "abi": [
    {
      "inputs": [
        {
          "internalType": "uint64",
          "name": "subscriptionId",
          "type": "uint64"
        }
      ],
      "stateMutability": "nonpayable",
      "type": "constructor"
    },
    {
      "inputs": [
        {
          "internalType": "address",
          "name": "have",
          "type": "address"
        },
        {
          "internalType": "address",
          "name": "want",
          "type": "address"
        }
      ],
      "name": "OnlyCoordinatorCanFulfill",
      "type": "error"
    },
    {
      "inputs": [],
      "name": "lastRequestId",
      "outputs": [
        {
          "internalType": "uint256",
          "name": "",
          "type": "uint256"
        }
      ],
      "stateMutability": "view",
      "type": "function",
      "constant": true
    },
    {
      "inputs": [
        {
          "internalType": "uint256",
          "name": "",
          "type": "uint256"
        }
      ],
      "name": "lotteryhistory",
      "outputs": [
        {
          "internalType": "address payable",
          "name": "",
          "type": "address"
        }
      ],
      "stateMutability": "view",
      "type": "function",
      "constant": true
    },
    {
      "inputs": [],
      "name": "lotteryid",
      "outputs": [
        {
          "internalType": "uint256",
          "name": "",
          "type": "uint256"
        }
      ],
      "stateMutability": "view",
      "type": "function",
      "constant": true
    },
    {
      "inputs": [],
      "name": "owner",
      "outputs": [
        {
          "internalType": "address",
          "name": "",
          "type": "address"
        }
      ],
      "stateMutability": "view",
      "type": "function",
      "constant": true
    },
    {
      "inputs": [
        {
          "internalType": "uint256",
          "name": "",
          "type": "uint256"
        }
      ],
      "name": "players",
      "outputs": [
        {
          "internalType": "address payable",
          "name": "",
          "type": "address"
        }
      ],
      "stateMutability": "view",
      "type": "function",
      "constant": true
    },
    {
      "inputs": [
        {
          "internalType": "uint256",
          "name": "requestId",
          "type": "uint256"
        },
        {
          "internalType": "uint256[]",
          "name": "randomWords",
          "type": "uint256[]"
        }
      ],
      "name": "rawFulfillRandomWords",
      "outputs": [],
      "stateMutability": "nonpayable",
      "type": "function"
    },
    {
      "inputs": [
        {
          "internalType": "uint256",
          "name": "",
          "type": "uint256"
        }
      ],
      "name": "requestIds",
      "outputs": [
        {
          "internalType": "uint256",
          "name": "",
          "type": "uint256"
        }
      ],
      "stateMutability": "view",
      "type": "function",
      "constant": true
    },
    {
      "inputs": [
        {
          "internalType": "uint256",
          "name": "",
          "type": "uint256"
        }
      ],
      "name": "s_requests",
      "outputs": [
        {
          "internalType": "bool",
          "name": "fulfilled",
          "type": "bool"
        },
        {
          "internalType": "bool",
          "name": "exists",
          "type": "bool"
        }
      ],
      "stateMutability": "view",
      "type": "function",
      "constant": true
    },
    {
      "inputs": [],
      "name": "requestRandomWords",
      "outputs": [
        {
          "internalType": "uint256",
          "name": "requestId",
          "type": "uint256"
        }
      ],
      "stateMutability": "nonpayable",
      "type": "function"
    },
    {
      "inputs": [
        {
          "internalType": "uint256",
          "name": "_requestId",
          "type": "uint256"
        }
      ],
      "name": "getRequestStatus",
      "outputs": [
        {
          "internalType": "bool",
          "name": "fulfilled",
          "type": "bool"
        },
        {
          "internalType": "uint256[]",
          "name": "randomWords",
          "type": "uint256[]"
        }
      ],
      "stateMutability": "view",
      "type": "function",
      "constant": true
    },
    {
      "inputs": [],
      "name": "getPotbalance",
      "outputs": [
        {
          "internalType": "uint256",
          "name": "",
          "type": "uint256"
        }
      ],
      "stateMutability": "view",
      "type": "function",
      "constant": true
    },
    {
      "inputs": [],
      "name": "getPlayers",
      "outputs": [
        {
          "internalType": "address payable[]",
          "name": "",
          "type": "address[]"
        }
      ],
      "stateMutability": "view",
      "type": "function",
      "constant": true
    },
    {
      "inputs": [],
      "name": "Play",
      "outputs": [],
      "stateMutability": "payable",
      "type": "function",
      "payable": true
    },
    {
      "inputs": [],
      "name": "pickWinner",
      "outputs": [],
      "stateMutability": "nonpayable",
      "type": "function"
    },
    {
      "inputs": [],
      "name": "Paywinner",
      "outputs": [],
      "stateMutability": "nonpayable",
      "type": "function"
    },
    {
      "inputs": [
        {
          "internalType": "uint256",
          "name": "_lotteryid",
          "type": "uint256"
        }
      ],
      "name": "getWinner",
      "outputs": [
        {
          "internalType": "address payable",
          "name": "",
          "type": "address"
        }
      ],
      "stateMutability": "view",
      "type": "function",
      "constant": true
    }
  ],
  "bytecode": "0x60a06040527f79d3d8832d904592c0bf9818b621522c988bb8b0c05cdc3b15aea1b6e8db0c15600855600980546001600160501b03191666020003000186a017905534801561004d57600080fd5b50604051610d6a380380610d6a83398101604081905261006c916100ca565b732ca8e0c643bde4c2e08ab1fa0da3401adad7734d6080819052600580546001600160401b03909316600160a01b026001600160e01b031990931692909217179055600080546001600160a01b0319163317905560016002556100fa565b6000602082840312156100dc57600080fd5b81516001600160401b03811681146100f357600080fd5b9392505050565b608051610c4e61011c6000396000818161039901526103db0152610c4e6000f3fe6080604052600436106100f35760003560e01c80638796ba8c1161008a578063d8a4676f11610059578063d8a4676f146102be578063e0c86289146102ec578063f71d96cb14610301578063fc2a88c31461032157600080fd5b80638796ba8c1461020c5780638b5b9ccc1461022c5780638da5cb5b1461024e578063a168fa891461026e57600080fd5b80632d9b7457116100c65780632d9b7457146101995780634129b2c9146101ac5780635d495aea146101e257806378b0b2e6146101f757600080fd5b806302f8281e146100f857806304e347eb1461014b5780630e2dce691461016f5780631fe543e314610179575b600080fd5b34801561010457600080fd5b5061012e610113366004610a0a565b6003602052600090815260409020546001600160a01b031681565b6040516001600160a01b0390911681526020015b60405180910390f35b34801561015757600080fd5b5061016160025481565b604051908152602001610142565b610177610337565b005b34801561018557600080fd5b50610177610194366004610a39565b61038e565b3480156101a557600080fd5b5047610161565b3480156101b857600080fd5b5061012e6101c7366004610a0a565b6000908152600360205260409020546001600160a01b031690565b3480156101ee57600080fd5b5061017761041b565b34801561020357600080fd5b5061017761043d565b34801561021857600080fd5b50610161610227366004610a0a565b61059b565b34801561023857600080fd5b506102416105bc565b6040516101429190610b03565b34801561025a57600080fd5b5060005461012e906001600160a01b031681565b34801561027a57600080fd5b506102a7610289366004610a0a565b60046020526000908152604090205460ff8082169161010090041682565b604080519215158352901515602083015201610142565b3480156102ca57600080fd5b506102de6102d9366004610a0a565b61061e565b604051610142929190610b50565b3480156102f857600080fd5b50610161610712565b34801561030d57600080fd5b5061012e61031c366004610a0a565b61089a565b34801561032d57600080fd5b5061016160075481565b662386f26fc1000034101561034b57600080fd5b6001805480820182556000919091527fb10e2d527612073b26eecdfd717e6a320cf44b4afac2b0732d9fcbe2b7fa0cf60180546001600160a01b03191633179055565b336001600160a01b037f0000000000000000000000000000000000000000000000000000000000000000161461040d5760405163073e64fd60e21b81523360048201526001600160a01b037f00000000000000000000000000000000000000000000000000000000000000001660248201526044015b60405180910390fd5b61041782826108c4565b5050565b6000546001600160a01b0316331461043257600080fd5b61043a610712565b50565b6000546001600160a01b0316331461045457600080fd5b6000600754116104b75760405162461bcd60e51b815260206004820152602860248201527f52657175697265732072616e646f6d4e756d62657220746f2067656e6572617460448201526732903bb4b73732b960c11b6064820152608401610404565b6001546007546000916104c991610ba0565b9050600181815481106104de576104de610bc2565b60009182526020822001546040516001600160a01b03909116914780156108fc02929091818181858888f1935050505015801561051f573d6000803e3d6000fd5b506001818154811061053357610533610bc2565b600091825260208083209091015460028054845260039092526040832080546001600160a01b0319166001600160a01b0390921691909117905580549161057983610bd8565b9091555050604080516000815260208101918290525161041791600191610955565b600681815481106105ab57600080fd5b600091825260209091200154905081565b6060600180548060200260200160405190810160405280929190818152602001828054801561061457602002820191906000526020600020905b81546001600160a01b031681526001909101906020018083116105f6575b5050505050905090565b600081815260046020526040812054606090610100900460ff166106785760405162461bcd60e51b81526020600482015260116024820152701c995c5d595cdd081b9bdd08199bdd5b99607a1b6044820152606401610404565b60008381526004602090815260408083208151606081018352815460ff80821615158352610100909104161515818501526001820180548451818702810187018652818152929593948601938301828280156106f357602002820191906000526020600020905b8154815260200190600101908083116106df575b5050505050815250509050806000015181604001519250925050915091565b600080546001600160a01b0316331461072a57600080fd5b6005546008546009546040516305d3b1d360e41b81526004810192909252600160a01b830467ffffffffffffffff166024830152640100000000810461ffff16604483015263ffffffff808216606484015266010000000000009091041660848201526001600160a01b0390911690635d3b1d309060a4016020604051808303816000875af11580156107c1573d6000803e3d6000fd5b505050506040513d601f19601f820116820180604052508101906107e59190610bff565b6040805160608101825260008082526001602080840182815285518481528083018752858701908152878552600483529590932084518154945161ffff1990951690151561ff0019161761010094151594909402939093178355935180519596509294919361085a93918501929101906109ba565b5050600680546001810182556000919091527ff652222313e28459528d920b65115c16c04f3efc82aaedc97be59f3f377c0d3f0182905550600781905590565b600181815481106108aa57600080fd5b6000918252602090912001546001600160a01b0316905081565b600082815260046020526040902054610100900460ff1661091b5760405162461bcd60e51b81526020600482015260116024820152701c995c5d595cdd081b9bdd08199bdd5b99607a1b6044820152606401610404565b6000828152600460209081526040909120805460ff191660019081178255835161094c9392909101918401906109ba565b5061041761041b565b8280548282559060005260206000209081019282156109aa579160200282015b828111156109aa57825182546001600160a01b0319166001600160a01b03909116178255602090920191600190910190610975565b506109b69291506109f5565b5090565b8280548282559060005260206000209081019282156109aa579160200282015b828111156109aa5782518255916020019190600101906109da565b5b808211156109b657600081556001016109f6565b600060208284031215610a1c57600080fd5b5035919050565b634e487b7160e01b600052604160045260246000fd5b60008060408385031215610a4c57600080fd5b8235915060208084013567ffffffffffffffff80821115610a6c57600080fd5b818601915086601f830112610a8057600080fd5b813581811115610a9257610a92610a23565b8060051b604051601f19603f83011681018181108582111715610ab757610ab7610a23565b604052918252848201925083810185019189831115610ad557600080fd5b938501935b82851015610af357843584529385019392850192610ada565b8096505050505050509250929050565b6020808252825182820181905260009190848201906040850190845b81811015610b445783516001600160a01b031683529284019291840191600101610b1f565b50909695505050505050565b60006040820184151583526020604081850152818551808452606086019150828701935060005b81811015610b9357845183529383019391830191600101610b77565b5090979650505050505050565b600082610bbd57634e487b7160e01b600052601260045260246000fd5b500690565b634e487b7160e01b600052603260045260246000fd5b600060018201610bf857634e487b7160e01b600052601160045260246000fd5b5060010190565b600060208284031215610c1157600080fd5b505191905056fea2646970667358221220570f5fa9e9b98c08ed68141d7d195311943e510086cf3c7aa446923c0d05513964736f6c63430008110033",
  "immutableReferences": {
    "192": [
      {
        "length": 32,
        "start": 921
      },
      {
        "length": 32,
        "start": 987
      }
    ]
  },
  "source": "//SPDX-License-Identifier: MIT\r\npragma solidity 0.8.17;\r\n\r\nimport \"@chainlink/contracts/src/v0.8/interfaces/VRFCoordinatorV2Interface.sol\";\r\nimport \"@chainlink/contracts/src/v0.8/VRFConsumerBaseV2.sol\";\r\nimport \"@chainlink/contracts/src/v0.8/ConfirmedOwner.sol\";\r\n\r\ncontract Lottery is VRFConsumerBaseV2 {\r\n    address public owner;\r\n    address payable[] public players;\r\n    uint256 public lotteryid;\r\n    mapping(uint256 => address payable) public lotteryhistory;\r\n\r\n    struct RequestStatus {\r\n        bool fulfilled; // whether the request has been successfully fulfilled\r\n        bool exists; // whether a requestId exists\r\n        uint256[] randomWords;\r\n    }\r\n    mapping(uint256 => RequestStatus) public s_requests; /* requestId --> requestStatus */\r\n    VRFCoordinatorV2Interface COORDINATOR;\r\n\r\n    // Your subscription ID.\r\n    uint64 s_subscriptionId;\r\n\r\n    // past requests Id.\r\n    uint256[] public requestIds;\r\n    uint256 public lastRequestId;\r\n\r\n    bytes32 keyHash =\r\n        0x79d3d8832d904592c0bf9818b621522c988bb8b0c05cdc3b15aea1b6e8db0c15;\r\n\r\n    uint32 callbackGasLimit = 100000;\r\n\r\n    uint16 requestConfirmations = 3;\r\n\r\n    uint32 numWords = 2;\r\n\r\n    constructor(uint64 subscriptionId)\r\n        VRFConsumerBaseV2(0x2Ca8E0C643bDe4C2E08ab1fA0da3401AdAD7734D)\r\n    {\r\n        COORDINATOR = VRFCoordinatorV2Interface(\r\n            0x2Ca8E0C643bDe4C2E08ab1fA0da3401AdAD7734D\r\n        );\r\n        s_subscriptionId = subscriptionId;\r\n        owner = msg.sender;\r\n        lotteryid = 1;\r\n    }\r\n\r\n    // Assumes the subscription is funded sufficiently.\r\n    function requestRandomWords() public onlyOwner returns (uint256 requestId) {\r\n        // Will revert if subscription is not set and funded.\r\n        requestId = COORDINATOR.requestRandomWords(\r\n            keyHash,\r\n            s_subscriptionId,\r\n            requestConfirmations,\r\n            callbackGasLimit,\r\n            numWords\r\n        );\r\n        s_requests[requestId] = RequestStatus({\r\n            randomWords: new uint256[](0),\r\n            exists: true,\r\n            fulfilled: false\r\n        });\r\n        requestIds.push(requestId);\r\n        lastRequestId = requestId;\r\n        return requestId;\r\n    }\r\n\r\n    function fulfillRandomWords(\r\n        uint256 _requestId,\r\n        uint256[] memory _randomWords\r\n    ) internal override {\r\n        require(s_requests[_requestId].exists, \"request not found\");\r\n        s_requests[_requestId].fulfilled = true;\r\n        s_requests[_requestId].randomWords = _randomWords;\r\n        pickWinner();\r\n    }\r\n\r\n    function getRequestStatus(uint256 _requestId)\r\n        external\r\n        view\r\n        returns (bool fulfilled, uint256[] memory randomWords)\r\n    {\r\n        require(s_requests[_requestId].exists, \"request not found\");\r\n        RequestStatus memory request = s_requests[_requestId];\r\n        return (request.fulfilled, request.randomWords);\r\n    }\r\n\r\n    function getPotbalance() public view returns (uint256) {\r\n        return address(this).balance;\r\n    }\r\n\r\n    function getPlayers() public view returns (address payable[] memory) {\r\n        return players;\r\n    }\r\n\r\n    function Play() public payable {\r\n        require(msg.value >= 10000000000000000);\r\n        //adding player address to an array\r\n        players.push(payable(msg.sender));\r\n    }\r\n\r\n    modifier onlyOwner() {\r\n        require(msg.sender == owner);\r\n        _;\r\n    }\r\n\r\n    function pickWinner() public onlyOwner {\r\n        requestRandomWords();\r\n    }\r\n\r\n    function Paywinner() public onlyOwner {\r\n        require(lastRequestId > 0, \"Requires randomNumber to generate winner\");\r\n        uint256 index = lastRequestId % players.length;\r\n        players[index].transfer(address(this).balance);\r\n\r\n        lotteryhistory[lotteryid] = players[index];\r\n        lotteryid++;\r\n\r\n        //reset contract state\r\n        players = new address payable[](0);\r\n    }\r\n\r\n    function getWinner(uint256 _lotteryid)\r\n        public\r\n        view\r\n        returns (address payable)\r\n    {\r\n        return lotteryhistory[_lotteryid];\r\n    }\r\n}\r\n",
  "sourcePath": "C:\\Users\\OLANREWAJU\\Desktop\\Portfolio\\Lottery\\loto_truffle\\contracts\\Lottery.sol",
  "compiler": {
    "name": "solc",
    "version": "0.8.17+commit.8df45f5f.Emscripten.clang"
  },
  "schemaVersion": "3.4.10",
  "updatedAt": "2022-12-11T08:28:55.494Z",
  "networkType": "ethereum",
  "devdoc": {
    "kind": "dev",
    "methods": {},
    "version": 1
  },
  "userdoc": {
    "kind": "user",
    "methods": {},
    "version": 1
  }
}