{
  "contractName": "Lottery",
  "abi": [
    {
      "inputs": [
        {
          "internalType": "uint64",
          "name": "subscriptionId",
          "type": "uint64"
        }
      ],
      "stateMutability": "nonpayable",
      "type": "constructor"
    },
    {
      "inputs": [
        {
          "internalType": "address",
          "name": "have",
          "type": "address"
        },
        {
          "internalType": "address",
          "name": "want",
          "type": "address"
        }
      ],
      "name": "OnlyCoordinatorCanFulfill",
      "type": "error"
    },
    {
      "inputs": [],
      "name": "lastRequestId",
      "outputs": [
        {
          "internalType": "uint256",
          "name": "",
          "type": "uint256"
        }
      ],
      "stateMutability": "view",
      "type": "function",
      "constant": true
    },
    {
      "inputs": [
        {
          "internalType": "uint256",
          "name": "",
          "type": "uint256"
        }
      ],
      "name": "lotteryhistory",
      "outputs": [
        {
          "internalType": "address payable",
          "name": "",
          "type": "address"
        }
      ],
      "stateMutability": "view",
      "type": "function",
      "constant": true
    },
    {
      "inputs": [],
      "name": "lotteryid",
      "outputs": [
        {
          "internalType": "uint256",
          "name": "",
          "type": "uint256"
        }
      ],
      "stateMutability": "view",
      "type": "function",
      "constant": true
    },
    {
      "inputs": [],
      "name": "owner",
      "outputs": [
        {
          "internalType": "address",
          "name": "",
          "type": "address"
        }
      ],
      "stateMutability": "view",
      "type": "function",
      "constant": true
    },
    {
      "inputs": [
        {
          "internalType": "uint256",
          "name": "",
          "type": "uint256"
        }
      ],
      "name": "players",
      "outputs": [
        {
          "internalType": "address payable",
          "name": "",
          "type": "address"
        }
      ],
      "stateMutability": "view",
      "type": "function",
      "constant": true
    },
    {
      "inputs": [
        {
          "internalType": "uint256",
          "name": "requestId",
          "type": "uint256"
        },
        {
          "internalType": "uint256[]",
          "name": "randomWords",
          "type": "uint256[]"
        }
      ],
      "name": "rawFulfillRandomWords",
      "outputs": [],
      "stateMutability": "nonpayable",
      "type": "function"
    },
    {
      "inputs": [
        {
          "internalType": "uint256",
          "name": "",
          "type": "uint256"
        }
      ],
      "name": "requestIds",
      "outputs": [
        {
          "internalType": "uint256",
          "name": "",
          "type": "uint256"
        }
      ],
      "stateMutability": "view",
      "type": "function",
      "constant": true
    },
    {
      "inputs": [
        {
          "internalType": "uint256",
          "name": "",
          "type": "uint256"
        }
      ],
      "name": "s_requests",
      "outputs": [
        {
          "internalType": "bool",
          "name": "fulfilled",
          "type": "bool"
        },
        {
          "internalType": "bool",
          "name": "exists",
          "type": "bool"
        }
      ],
      "stateMutability": "view",
      "type": "function",
      "constant": true
    },
    {
      "inputs": [],
      "name": "requestRandomWords",
      "outputs": [
        {
          "internalType": "uint256",
          "name": "requestId",
          "type": "uint256"
        }
      ],
      "stateMutability": "nonpayable",
      "type": "function"
    },
    {
      "inputs": [
        {
          "internalType": "uint256",
          "name": "_requestId",
          "type": "uint256"
        }
      ],
      "name": "getRequestStatus",
      "outputs": [
        {
          "internalType": "bool",
          "name": "fulfilled",
          "type": "bool"
        },
        {
          "internalType": "uint256[]",
          "name": "randomWords",
          "type": "uint256[]"
        }
      ],
      "stateMutability": "view",
      "type": "function",
      "constant": true
    },
    {
      "inputs": [],
      "name": "getPotbalance",
      "outputs": [
        {
          "internalType": "uint256",
          "name": "",
          "type": "uint256"
        }
      ],
      "stateMutability": "view",
      "type": "function",
      "constant": true
    },
    {
      "inputs": [],
      "name": "getPlayers",
      "outputs": [
        {
          "internalType": "address payable[]",
          "name": "",
          "type": "address[]"
        }
      ],
      "stateMutability": "view",
      "type": "function",
      "constant": true
    },
    {
      "inputs": [],
      "name": "Play",
      "outputs": [],
      "stateMutability": "payable",
      "type": "function",
      "payable": true
    },
    {
      "inputs": [],
      "name": "pickWinner",
      "outputs": [],
      "stateMutability": "nonpayable",
      "type": "function"
    },
    {
      "inputs": [],
      "name": "Paywinner",
      "outputs": [],
      "stateMutability": "nonpayable",
      "type": "function"
    },
    {
      "inputs": [
        {
          "internalType": "uint256",
          "name": "_lotteryid",
          "type": "uint256"
        }
      ],
      "name": "getWinner",
      "outputs": [
        {
          "internalType": "address payable",
          "name": "",
          "type": "address"
        }
      ],
      "stateMutability": "view",
      "type": "function",
      "constant": true
    },
    {
      "inputs": [],
      "name": "getlotteryid",
      "outputs": [
        {
          "internalType": "uint256",
          "name": "",
          "type": "uint256"
        }
      ],
      "stateMutability": "view",
      "type": "function",
      "constant": true
    }
  ],
  "bytecode": "0x60a06040527f79d3d8832d904592c0bf9818b621522c988bb8b0c05cdc3b15aea1b6e8db0c15600855600980546001600160501b03191666020003000186a017905534801561004d57600080fd5b50604051610e29380380610e2983398101604081905261006c916100e9565b7f2ca8e0c643bde4c2e08ab1fa0da3401adad7734d000000000000000000000000608052600580546001600160401b03909216600160a01b026001600160e01b031990921691909117732ca8e0c643bde4c2e08ab1fa0da3401adad7734d179055600080546001600160a01b031916331790556001600255610119565b6000602082840312156100fb57600080fd5b81516001600160401b038116811461011257600080fd5b9392505050565b60805160601c610ceb61013e600039600081816103b901526103fb0152610ceb6000f3fe6080604052600436106100fe5760003560e01c80638796ba8c11610095578063a168fa8911610064578063a168fa891461028e578063d8a4676f146102de578063e0c862891461030c578063f71d96cb14610321578063fc2a88c31461034157600080fd5b80638796ba8c146102175780638b5b9ccc146102375780638da5cb5b1461025957806399c12b471461027957600080fd5b80632d9b7457116100d15780632d9b7457146101a45780634129b2c9146101b75780635d495aea146101ed57806378b0b2e61461020257600080fd5b806302f8281e1461010357806304e347eb146101565780630e2dce691461017a5780631fe543e314610184575b600080fd5b34801561010f57600080fd5b5061013961011e366004610a7f565b6003602052600090815260409020546001600160a01b031681565b6040516001600160a01b0390911681526020015b60405180910390f35b34801561016257600080fd5b5061016c60025481565b60405190815260200161014d565b610182610357565b005b34801561019057600080fd5b5061018261019f366004610ab1565b6103ae565b3480156101b057600080fd5b504761016c565b3480156101c357600080fd5b506101396101d2366004610a7f565b6000908152600360205260409020546001600160a01b031690565b3480156101f957600080fd5b5061018261043b565b34801561020e57600080fd5b5061018261045d565b34801561022357600080fd5b5061016c610232366004610a7f565b610601565b34801561024357600080fd5b5061024c610622565b60405161014d9190610b82565b34801561026557600080fd5b50600054610139906001600160a01b031681565b34801561028557600080fd5b5060025461016c565b34801561029a57600080fd5b506102c76102a9366004610a7f565b60046020526000908152604090205460ff8082169161010090041682565b60408051921515835290151560208301520161014d565b3480156102ea57600080fd5b506102fe6102f9366004610a7f565b610684565b60405161014d929190610bcf565b34801561031857600080fd5b5061016c610778565b34801561032d57600080fd5b5061013961033c366004610a7f565b61090f565b34801561034d57600080fd5b5061016c60075481565b662386f26fc1000034101561036b57600080fd5b6001805480820182556000919091527fb10e2d527612073b26eecdfd717e6a320cf44b4afac2b0732d9fcbe2b7fa0cf60180546001600160a01b03191633179055565b336001600160a01b037f0000000000000000000000000000000000000000000000000000000000000000161461042d5760405163073e64fd60e21b81523360048201526001600160a01b037f00000000000000000000000000000000000000000000000000000000000000001660248201526044015b60405180910390fd5b6104378282610939565b5050565b6000546001600160a01b0316331461045257600080fd5b61045a610778565b50565b6000546001600160a01b0316331461047457600080fd5b600754600090815260046020526040902060608051909161049d916001909101906080906109ca565b50600081600183516104af9190610c1f565b815181106104bf576104bf610c89565b60200260200101519050600081116105195760405162461bcd60e51b815260206004820152601d60248201527f5468657265206d75737420626520612072616e646f6d206e756d6265720000006044820152606401610424565b6001546000906105299083610c51565b90506001818154811061053e5761053e610c89565b60009182526020822001546040516001600160a01b03909116914780156108fc02929091818181858888f1935050505015801561057f573d6000803e3d6000fd5b506001818154811061059357610593610c89565b600091825260208083209091015460028054845260039092526040832080546001600160a01b0319166001600160a01b039092169190911790558054916105d983610c36565b909155505060408051600081526020810191829052516105fb91600191610a15565b50505050565b6006818154811061061157600080fd5b600091825260209091200154905081565b6060600180548060200260200160405190810160405280929190818152602001828054801561067a57602002820191906000526020600020905b81546001600160a01b0316815260019091019060200180831161065c575b5050505050905090565b600081815260046020526040812054606090610100900460ff166106de5760405162461bcd60e51b81526020600482015260116024820152701c995c5d595cdd081b9bdd08199bdd5b99607a1b6044820152606401610424565b60008381526004602090815260408083208151606081018352815460ff808216151583526101009091041615158185015260018201805484518187028101870186528181529295939486019383018282801561075957602002820191906000526020600020905b815481526020019060010190808311610745575b5050505050815250509050806000015181604001519250925050915091565b600080546001600160a01b0316331461079057600080fd5b6005546008546009546040516305d3b1d360e41b81526004810192909252600160a01b830467ffffffffffffffff166024830152640100000000810461ffff16604483015263ffffffff808216606484015266010000000000009091041660848201526001600160a01b0390911690635d3b1d309060a401602060405180830381600087803b15801561082257600080fd5b505af1158015610836573d6000803e3d6000fd5b505050506040513d601f19601f8201168201806040525081019061085a9190610a98565b6040805160608101825260008082526001602080840182815285518481528083018752858701908152878552600483529590932084518154945161ffff1990951690151561ff001916176101009415159490940293909317835593518051959650929491936108cf93918501929101906109ca565b5050600680546001810182556000919091527ff652222313e28459528d920b65115c16c04f3efc82aaedc97be59f3f377c0d3f0182905550600781905590565b6001818154811061091f57600080fd5b6000918252602090912001546001600160a01b0316905081565b600082815260046020526040902054610100900460ff166109905760405162461bcd60e51b81526020600482015260116024820152701c995c5d595cdd081b9bdd08199bdd5b99607a1b6044820152606401610424565b6000828152600460209081526040909120805460ff19166001908117825583516109c19392909101918401906109ca565b5061043761043b565b828054828255906000526020600020908101928215610a05579160200282015b82811115610a055782518255916020019190600101906109ea565b50610a11929150610a6a565b5090565b828054828255906000526020600020908101928215610a05579160200282015b82811115610a0557825182546001600160a01b0319166001600160a01b03909116178255602090920191600190910190610a35565b5b80821115610a115760008155600101610a6b565b600060208284031215610a9157600080fd5b5035919050565b600060208284031215610aaa57600080fd5b5051919050565b60008060408385031215610ac457600080fd5b8235915060208084013567ffffffffffffffff80821115610ae457600080fd5b818601915086601f830112610af857600080fd5b813581811115610b0a57610b0a610c9f565b8060051b604051601f19603f83011681018181108582111715610b2f57610b2f610c9f565b604052828152858101935084860182860187018b1015610b4e57600080fd5b600095505b83861015610b71578035855260019590950194938601938601610b53565b508096505050505050509250929050565b6020808252825182820181905260009190848201906040850190845b81811015610bc35783516001600160a01b031683529284019291840191600101610b9e565b50909695505050505050565b60006040820184151583526020604081850152818551808452606086019150828701935060005b81811015610c1257845183529383019391830191600101610bf6565b5090979650505050505050565b600082821015610c3157610c31610c73565b500390565b6000600019821415610c4a57610c4a610c73565b5060010190565b600082610c6e57634e487b7160e01b600052601260045260246000fd5b500690565b634e487b7160e01b600052601160045260246000fd5b634e487b7160e01b600052603260045260246000fd5b634e487b7160e01b600052604160045260246000fdfea2646970667358221220566d4bfb6657aa37c6f75216cd89d478ac55061c4484a08f5ed38b5142c6836964736f6c63430008070033",
  "immutableReferences": {
    "192": [
      {
        "length": 32,
        "start": 953
      },
      {
        "length": 32,
        "start": 1019
      }
    ]
  },
  "source": "//SPDX-License-Identifier: MIT\r\npragma solidity ^0.8.7;\r\n\r\nimport \"@chainlink/contracts/src/v0.8/interfaces/VRFCoordinatorV2Interface.sol\";\r\nimport \"@chainlink/contracts/src/v0.8/VRFConsumerBaseV2.sol\";\r\nimport \"@chainlink/contracts/src/v0.8/ConfirmedOwner.sol\";\r\n\r\ncontract Lottery is VRFConsumerBaseV2 {\r\n    address public owner;\r\n    address payable[] public players;\r\n    uint256 public lotteryid;\r\n    mapping(uint256 => address payable) public lotteryhistory;\r\n\r\n    struct RequestStatus {\r\n        bool fulfilled; // whether the request has been successfully fulfilled\r\n        bool exists; // whether a requestId exists\r\n        uint256[] randomWords;\r\n    }\r\n    mapping(uint256 => RequestStatus) public s_requests; /* requestId --> requestStatus */\r\n    VRFCoordinatorV2Interface COORDINATOR;\r\n\r\n    // Your subscription ID.\r\n    uint64 s_subscriptionId;\r\n\r\n    // past requests Id.\r\n    uint256[] public requestIds;\r\n    uint256 public lastRequestId;\r\n\r\n    bytes32 keyHash =\r\n        0x79d3d8832d904592c0bf9818b621522c988bb8b0c05cdc3b15aea1b6e8db0c15;\r\n\r\n    uint32 callbackGasLimit = 100000;\r\n\r\n    uint16 requestConfirmations = 3;\r\n\r\n    uint32 numWords = 2;\r\n\r\n    constructor(uint64 subscriptionId)\r\n        VRFConsumerBaseV2(0x2Ca8E0C643bDe4C2E08ab1fA0da3401AdAD7734D)\r\n    {\r\n        COORDINATOR = VRFCoordinatorV2Interface(\r\n            0x2Ca8E0C643bDe4C2E08ab1fA0da3401AdAD7734D\r\n        );\r\n        s_subscriptionId = subscriptionId;\r\n        owner = msg.sender;\r\n        lotteryid = 1;\r\n    }\r\n\r\n    // Assumes the subscription is funded sufficiently.\r\n    function requestRandomWords() public onlyOwner returns (uint256 requestId) {\r\n        // Will revert if subscription is not set and funded.\r\n        requestId = COORDINATOR.requestRandomWords(\r\n            keyHash,\r\n            s_subscriptionId,\r\n            requestConfirmations,\r\n            callbackGasLimit,\r\n            numWords\r\n        );\r\n        s_requests[requestId] = RequestStatus({\r\n            randomWords: new uint256[](0),\r\n            exists: true,\r\n            fulfilled: false\r\n        });\r\n        requestIds.push(requestId);\r\n        lastRequestId = requestId;\r\n        return requestId;\r\n    }\r\n\r\n    function fulfillRandomWords(\r\n        uint256 _requestId,\r\n        uint256[] memory _randomWords\r\n    ) internal override {\r\n        require(s_requests[_requestId].exists, \"request not found\");\r\n        s_requests[_requestId].fulfilled = true;\r\n        s_requests[_requestId].randomWords = _randomWords;\r\n        pickWinner();\r\n    }\r\n\r\n    function getRequestStatus(uint256 _requestId)\r\n        public\r\n        view\r\n        returns (bool fulfilled, uint256[] memory randomWords)\r\n    {\r\n        require(s_requests[_requestId].exists, \"request not found\");\r\n        RequestStatus memory request = s_requests[_requestId];\r\n        return (request.fulfilled, request.randomWords);\r\n    }\r\n\r\n    function getPotbalance() public view returns (uint256) {\r\n        return address(this).balance;\r\n    }\r\n\r\n    function getPlayers() public view returns (address payable[] memory) {\r\n        return players;\r\n    }\r\n\r\n    function Play() public payable {\r\n        require(msg.value >= 10000000000000000);\r\n        //adding player address to an array\r\n        players.push(payable(msg.sender));\r\n    }\r\n\r\n    modifier onlyOwner() {\r\n        require(msg.sender == owner);\r\n        _;\r\n    }\r\n\r\n    function pickWinner() public onlyOwner {\r\n        requestRandomWords();\r\n    }\r\n\r\n    function Paywinner() public onlyOwner {\r\n        uint256[] memory _randomWords;\r\n        s_requests[lastRequestId].randomWords = _randomWords;\r\n        uint256 lastRandomWords = _randomWords[_randomWords.length - 1];\r\n        require(lastRandomWords > 0, \"There must be a random number\");\r\n\r\n        uint256 index = lastRandomWords % players.length;\r\n        players[index].transfer(address(this).balance);\r\n\r\n        lotteryhistory[lotteryid] = players[index];\r\n        lotteryid++;\r\n\r\n        //reset contract state\r\n        players = new address payable[](0);\r\n    }\r\n\r\n    function getWinner(uint256 _lotteryid)\r\n        public\r\n        view\r\n        returns (address payable)\r\n    {\r\n        return lotteryhistory[_lotteryid];\r\n    }\r\n\r\n    function getlotteryid() public view returns (uint256) {\r\n        return lotteryid;\r\n    }\r\n}\r\n",
  "sourcePath": "C:\\Users\\OLANREWAJU\\Desktop\\Portfolio\\Lottery\\loto_truffle\\contracts\\Lottery.sol",
  "compiler": {
    "name": "solc",
    "version": "0.8.7+commit.e28d00a7.Emscripten.clang"
  },
  "schemaVersion": "3.4.10",
  "updatedAt": "2022-12-07T21:14:04.960Z",
  "networkType": "ethereum",
  "devdoc": {
    "kind": "dev",
    "methods": {},
    "version": 1
  },
  "userdoc": {
    "kind": "user",
    "methods": {},
    "version": 1
  }
}